{
  "_format": "hh-sol-artifact-1",
  "contractName": "MyEpicNFT",
  "sourceName": "contracts/MyEpicNFT.sol",
  "abi": [
    {
      "inputs": [],
      "stateMutability": "nonpayable",
      "type": "constructor"
    },
    {
      "anonymous": false,
      "inputs": [
        {
          "indexed": true,
          "internalType": "address",
          "name": "owner",
          "type": "address"
        },
        {
          "indexed": true,
          "internalType": "address",
          "name": "approved",
          "type": "address"
        },
        {
          "indexed": true,
          "internalType": "uint256",
          "name": "tokenId",
          "type": "uint256"
        }
      ],
      "name": "Approval",
      "type": "event"
    },
    {
      "anonymous": false,
      "inputs": [
        {
          "indexed": true,
          "internalType": "address",
          "name": "owner",
          "type": "address"
        },
        {
          "indexed": true,
          "internalType": "address",
          "name": "operator",
          "type": "address"
        },
        {
          "indexed": false,
          "internalType": "bool",
          "name": "approved",
          "type": "bool"
        }
      ],
      "name": "ApprovalForAll",
      "type": "event"
    },
    {
      "anonymous": false,
      "inputs": [
        {
          "indexed": false,
          "internalType": "address",
          "name": "sender",
          "type": "address"
        },
        {
          "indexed": false,
          "internalType": "uint256",
          "name": "tokenId",
          "type": "uint256"
        }
      ],
      "name": "NewEpicNFTMinted",
      "type": "event"
    },
    {
      "anonymous": false,
      "inputs": [
        {
          "indexed": true,
          "internalType": "address",
          "name": "from",
          "type": "address"
        },
        {
          "indexed": true,
          "internalType": "address",
          "name": "to",
          "type": "address"
        },
        {
          "indexed": true,
          "internalType": "uint256",
          "name": "tokenId",
          "type": "uint256"
        }
      ],
      "name": "Transfer",
      "type": "event"
    },
    {
      "inputs": [
        {
          "internalType": "address",
          "name": "to",
          "type": "address"
        },
        {
          "internalType": "uint256",
          "name": "tokenId",
          "type": "uint256"
        }
      ],
      "name": "approve",
      "outputs": [],
      "stateMutability": "nonpayable",
      "type": "function"
    },
    {
      "inputs": [
        {
          "internalType": "address",
          "name": "owner",
          "type": "address"
        }
      ],
      "name": "balanceOf",
      "outputs": [
        {
          "internalType": "uint256",
          "name": "",
          "type": "uint256"
        }
      ],
      "stateMutability": "view",
      "type": "function"
    },
    {
      "inputs": [
        {
          "internalType": "uint256",
          "name": "tokenId",
          "type": "uint256"
        }
      ],
      "name": "getApproved",
      "outputs": [
        {
          "internalType": "address",
          "name": "",
          "type": "address"
        }
      ],
      "stateMutability": "view",
      "type": "function"
    },
    {
      "inputs": [],
      "name": "getTotalNFTsMinted",
      "outputs": [
        {
          "internalType": "uint256",
          "name": "",
          "type": "uint256"
        }
      ],
      "stateMutability": "view",
      "type": "function"
    },
    {
      "inputs": [
        {
          "internalType": "address",
          "name": "owner",
          "type": "address"
        },
        {
          "internalType": "address",
          "name": "operator",
          "type": "address"
        }
      ],
      "name": "isApprovedForAll",
      "outputs": [
        {
          "internalType": "bool",
          "name": "",
          "type": "bool"
        }
      ],
      "stateMutability": "view",
      "type": "function"
    },
    {
      "inputs": [],
      "name": "makeAnEpicNFT",
      "outputs": [],
      "stateMutability": "nonpayable",
      "type": "function"
    },
    {
      "inputs": [],
      "name": "name",
      "outputs": [
        {
          "internalType": "string",
          "name": "",
          "type": "string"
        }
      ],
      "stateMutability": "view",
      "type": "function"
    },
    {
      "inputs": [
        {
          "internalType": "uint256",
          "name": "tokenId",
          "type": "uint256"
        }
      ],
      "name": "ownerOf",
      "outputs": [
        {
          "internalType": "address",
          "name": "",
          "type": "address"
        }
      ],
      "stateMutability": "view",
      "type": "function"
    },
    {
      "inputs": [
        {
          "internalType": "uint256",
          "name": "tokenId",
          "type": "uint256"
        }
      ],
      "name": "pickRandomColor",
      "outputs": [
        {
          "internalType": "string",
          "name": "",
          "type": "string"
        }
      ],
      "stateMutability": "view",
      "type": "function"
    },
    {
      "inputs": [
        {
          "internalType": "uint256",
          "name": "tokenId",
          "type": "uint256"
        }
      ],
      "name": "pickRandomFirstWord",
      "outputs": [
        {
          "internalType": "string",
          "name": "",
          "type": "string"
        }
      ],
      "stateMutability": "view",
      "type": "function"
    },
    {
      "inputs": [
        {
          "internalType": "uint256",
          "name": "tokenId",
          "type": "uint256"
        }
      ],
      "name": "pickRandomSecondWord",
      "outputs": [
        {
          "internalType": "string",
          "name": "",
          "type": "string"
        }
      ],
      "stateMutability": "view",
      "type": "function"
    },
    {
      "inputs": [
        {
          "internalType": "uint256",
          "name": "tokenId",
          "type": "uint256"
        }
      ],
      "name": "pickRandomThirdWord",
      "outputs": [
        {
          "internalType": "string",
          "name": "",
          "type": "string"
        }
      ],
      "stateMutability": "view",
      "type": "function"
    },
    {
      "inputs": [
        {
          "internalType": "address",
          "name": "from",
          "type": "address"
        },
        {
          "internalType": "address",
          "name": "to",
          "type": "address"
        },
        {
          "internalType": "uint256",
          "name": "tokenId",
          "type": "uint256"
        }
      ],
      "name": "safeTransferFrom",
      "outputs": [],
      "stateMutability": "nonpayable",
      "type": "function"
    },
    {
      "inputs": [
        {
          "internalType": "address",
          "name": "from",
          "type": "address"
        },
        {
          "internalType": "address",
          "name": "to",
          "type": "address"
        },
        {
          "internalType": "uint256",
          "name": "tokenId",
          "type": "uint256"
        },
        {
          "internalType": "bytes",
          "name": "_data",
          "type": "bytes"
        }
      ],
      "name": "safeTransferFrom",
      "outputs": [],
      "stateMutability": "nonpayable",
      "type": "function"
    },
    {
      "inputs": [
        {
          "internalType": "address",
          "name": "operator",
          "type": "address"
        },
        {
          "internalType": "bool",
          "name": "approved",
          "type": "bool"
        }
      ],
      "name": "setApprovalForAll",
      "outputs": [],
      "stateMutability": "nonpayable",
      "type": "function"
    },
    {
      "inputs": [
        {
          "internalType": "bytes4",
          "name": "interfaceId",
          "type": "bytes4"
        }
      ],
      "name": "supportsInterface",
      "outputs": [
        {
          "internalType": "bool",
          "name": "",
          "type": "bool"
        }
      ],
      "stateMutability": "view",
      "type": "function"
    },
    {
      "inputs": [],
      "name": "symbol",
      "outputs": [
        {
          "internalType": "string",
          "name": "",
          "type": "string"
        }
      ],
      "stateMutability": "view",
      "type": "function"
    },
    {
      "inputs": [
        {
          "internalType": "uint256",
          "name": "tokenId",
          "type": "uint256"
        }
      ],
      "name": "tokenURI",
      "outputs": [
        {
          "internalType": "string",
          "name": "",
          "type": "string"
        }
      ],
      "stateMutability": "view",
      "type": "function"
    },
    {
      "inputs": [
        {
          "internalType": "address",
          "name": "from",
          "type": "address"
        },
        {
          "internalType": "address",
          "name": "to",
          "type": "address"
        },
        {
          "internalType": "uint256",
          "name": "tokenId",
          "type": "uint256"
        }
      ],
      "name": "transferFrom",
      "outputs": [],
      "stateMutability": "nonpayable",
      "type": "function"
    }
  ],
  "bytecode": "0x608060405260405180610100016040528060d3815260200162004ce460d39139600890805190602001906200003692919062000e68565b5060405180608001604052806056815260200162004db760569139600990805190602001906200006892919062000e68565b50604051806101e001604052806040518060400160405280600781526020017f4d61676963616c0000000000000000000000000000000000000000000000000081525081526020016040518060400160405280600481526020017f486f6c790000000000000000000000000000000000000000000000000000000081525081526020016040518060400160405280600481526020017f457069630000000000000000000000000000000000000000000000000000000081525081526020016040518060400160405280600481526020017f57696c640000000000000000000000000000000000000000000000000000000081525081526020016040518060400160405280600781526020017f416d617a696e670000000000000000000000000000000000000000000000000081525081526020016040518060400160405280600881526020017f4d616a657374696300000000000000000000000000000000000000000000000081525081526020016040518060400160405280600981526020017f46616e746173746963000000000000000000000000000000000000000000000081525081526020016040518060400160405280600581526020017f4372617a7900000000000000000000000000000000000000000000000000000081525081526020016040518060400160405280600881526020017f5465727269626c6500000000000000000000000000000000000000000000000081525081526020016040518060400160405280600581526020017f477265617400000000000000000000000000000000000000000000000000000081525081526020016040518060400160405280600981526020017f48756d6f6e676f7573000000000000000000000000000000000000000000000081525081526020016040518060400160405280600481526020017f4c616d650000000000000000000000000000000000000000000000000000000081525081526020016040518060400160405280600681526020017f53706f6f6b79000000000000000000000000000000000000000000000000000081525081526020016040518060400160405280600981526020017f44656c6963696f7573000000000000000000000000000000000000000000000081525081526020016040518060400160405280600481526020017f5769736500000000000000000000000000000000000000000000000000000000815250815250600a90600f620003fa92919062000ef9565b50604051806101e001604052806040518060400160405280600681526020017f466c79696e67000000000000000000000000000000000000000000000000000081525081526020016040518060400160405280600881526020017f547769726c696e6700000000000000000000000000000000000000000000000081525081526020016040518060400160405280600781526020017f44616e63696e670000000000000000000000000000000000000000000000000081525081526020016040518060400160405280600881526020017f5072616e63696e6700000000000000000000000000000000000000000000000081525081526020016040518060400160405280600881526020017f5377696d6d696e6700000000000000000000000000000000000000000000000081525081526020016040518060400160405280600881526020017f466c6f6174696e6700000000000000000000000000000000000000000000000081525081526020016040518060400160405280600881526020017f536c656570696e6700000000000000000000000000000000000000000000000081525081526020016040518060400160405280600881526020017f447265616d696e6700000000000000000000000000000000000000000000000081525081526020016040518060400160405280600781526020017f436f6f6b696e670000000000000000000000000000000000000000000000000081525081526020016040518060400160405280600781526020017f53696e67696e670000000000000000000000000000000000000000000000000081525081526020016040518060400160405280600681526020017f536b69696e67000000000000000000000000000000000000000000000000000081525081526020016040518060400160405280600881526020017f536e6f7274696e6700000000000000000000000000000000000000000000000081525081526020016040518060400160405280600881526020017f4c61756768696e6700000000000000000000000000000000000000000000000081525081526020016040518060400160405280600a81526020017f53756e62617468696e670000000000000000000000000000000000000000000081525081526020016040518060400160405280600881526020017f53686f7070696e67000000000000000000000000000000000000000000000000815250815250600b90600f6200078c92919062000ef9565b50604051806101e001604052806040518060400160405280600581526020017f486970706f00000000000000000000000000000000000000000000000000000081525081526020016040518060400160405280600781526020017f50656e6775696e0000000000000000000000000000000000000000000000000081525081526020016040518060400160405280600581526020017f4d6f6f736500000000000000000000000000000000000000000000000000000081525081526020016040518060400160405280600781526020017f42756666616c6f0000000000000000000000000000000000000000000000000081525081526020016040518060400160405280600381526020017f446f67000000000000000000000000000000000000000000000000000000000081525081526020016040518060400160405280600381526020017f436174000000000000000000000000000000000000000000000000000000000081525081526020016040518060400160405280600581526020017f4d6f75736500000000000000000000000000000000000000000000000000000081525081526020016040518060400160405280600481526020017f506f6e790000000000000000000000000000000000000000000000000000000081525081526020016040518060400160405280600781526020017f556e69636f726e0000000000000000000000000000000000000000000000000081525081526020016040518060400160405280600581526020017f50616e646100000000000000000000000000000000000000000000000000000081525081526020016040518060400160405280600881526020017f4b616e6761726f6f00000000000000000000000000000000000000000000000081525081526020016040518060400160405280600681526020017f526162626974000000000000000000000000000000000000000000000000000081525081526020016040518060400160405280600781526020017f476972616666650000000000000000000000000000000000000000000000000081525081526020016040518060400160405280600581526020017f4c6c616d6100000000000000000000000000000000000000000000000000000081525081526020016040518060400160405280600781526020017f476f72696c6c6100000000000000000000000000000000000000000000000000815250815250600c90600f62000b1e92919062000ef9565b506040518060c001604052806040518060400160405280600381526020017f726564000000000000000000000000000000000000000000000000000000000081525081526020016040518060400160405280600781526020017f233038433241380000000000000000000000000000000000000000000000000081525081526020016040518060400160405280600581526020017f626c61636b00000000000000000000000000000000000000000000000000000081525081526020016040518060400160405280600681526020017f79656c6c6f77000000000000000000000000000000000000000000000000000081525081526020016040518060400160405280600481526020017f626c75650000000000000000000000000000000000000000000000000000000081525081526020016040518060400160405280600581526020017f677265656e000000000000000000000000000000000000000000000000000000815250815250600d90600662000c9c92919062000f60565b5034801562000caa57600080fd5b506040518060400160405280600981526020017f5371756172654e465400000000000000000000000000000000000000000000008152506040518060400160405280600681526020017f5351554152450000000000000000000000000000000000000000000000000000815250816000908051906020019062000d2f92919062000e68565b50806001908051906020019062000d4892919062000e68565b50505062000d966040518060400160405280601881526020017f54686973206973206d79204e465420636f6e747261637421000000000000000081525062000d9c60201b620014121760201c565b62001181565b62000e3c8160405160240162000db3919062001095565b6040516020818303038152906040527f41304fac000000000000000000000000000000000000000000000000000000007bffffffffffffffffffffffffffffffffffffffffffffffffffffffff19166020820180517bffffffffffffffffffffffffffffffffffffffffffffffffffffffff838183161783525050505062000e3f60201b60201c565b50565b60008151905060006a636f6e736f6c652e6c6f679050602083016000808483855afa5050505050565b82805462000e76906200110b565b90600052602060002090601f01602090048101928262000e9a576000855562000ee6565b82601f1062000eb557805160ff191683800117855562000ee6565b8280016001018555821562000ee6579182015b8281111562000ee557825182559160200191906001019062000ec8565b5b50905062000ef5919062000fc7565b5090565b82805482825590600052602060002090810192821562000f4d579160200282015b8281111562000f4c57825182908051906020019062000f3b92919062000e68565b509160200191906001019062000f1a565b5b50905062000f5c919062000fe6565b5090565b82805482825590600052602060002090810192821562000fb4579160200282015b8281111562000fb357825182908051906020019062000fa292919062000e68565b509160200191906001019062000f81565b5b50905062000fc3919062000fe6565b5090565b5b8082111562000fe257600081600090555060010162000fc8565b5090565b5b808211156200100a57600081816200100091906200100e565b5060010162000fe7565b5090565b5080546200101c906200110b565b6000825580601f1062001030575062001051565b601f01602090049060005260206000209081019062001050919062000fc7565b5b50565b60006200106182620010b9565b6200106d8185620010c4565b93506200107f818560208601620010d5565b6200108a8162001170565b840191505092915050565b60006020820190508181036000830152620010b1818462001054565b905092915050565b600081519050919050565b600082825260208201905092915050565b60005b83811015620010f5578082015181840152602081019050620010d8565b8381111562001105576000848401525b50505050565b600060028204905060018216806200112457607f821691505b602082108114156200113b576200113a62001141565b5b50919050565b7f4e487b7100000000000000000000000000000000000000000000000000000000600052602260045260246000fd5b6000601f19601f8301169050919050565b613b5380620011916000396000f3fe608060405234801561001057600080fd5b50600436106101215760003560e01c806370a08231116100ad578063b88d4fde11610071578063b88d4fde14610340578063c575757a1461035c578063c87b56dd1461038c578063de9d132f146103bc578063e985e9c5146103c657610121565b806370a082311461028857806395d89b41146102b8578063a22cb465146102d6578063b187301f146102f2578063b4c3b8be1461032257610121565b806323b872dd116100f457806323b872dd146101c05780632de38d68146101dc57806342842e0e1461020c578063514dc8c6146102285780636352211e1461025857610121565b806301ffc9a71461012657806306fdde0314610156578063081812fc14610174578063095ea7b3146101a4575b600080fd5b610140600480360381019061013b91906126a5565b6103f6565b60405161014d91906133a9565b60405180910390f35b61015e6104d8565b60405161016b91906133c4565b60405180910390f35b61018e600480360381019061018991906126f7565b61056a565b60405161019b9190613319565b60405180910390f35b6101be60048036038101906101b99190612669565b6105ef565b005b6101da60048036038101906101d59190612563565b610707565b005b6101f660048036038101906101f191906126f7565b610767565b60405161020391906133c4565b60405180910390f35b61022660048036038101906102219190612563565b610885565b005b610242600480360381019061023d91906126f7565b6108a5565b60405161024f91906133c4565b60405180910390f35b610272600480360381019061026d91906126f7565b6109c3565b60405161027f9190613319565b60405180910390f35b6102a2600480360381019061029d91906124fe565b610a75565b6040516102af9190613644565b60405180910390f35b6102c0610b2d565b6040516102cd91906133c4565b60405180910390f35b6102f060048036038101906102eb919061262d565b610bbf565b005b61030c600480360381019061030791906126f7565b610d40565b60405161031991906133c4565b60405180910390f35b61032a610e5e565b6040516103379190613644565b60405180910390f35b61035a600480360381019061035591906125b2565b610e6f565b005b610376600480360381019061037191906126f7565b610ed1565b60405161038391906133c4565b60405180910390f35b6103a660048036038101906103a191906126f7565b610fef565b6040516103b391906133c4565b60405180910390f35b6103c4611141565b005b6103e060048036038101906103db9190612527565b61137e565b6040516103ed91906133a9565b60405180910390f35b60007f80ac58cd000000000000000000000000000000000000000000000000000000007bffffffffffffffffffffffffffffffffffffffffffffffffffffffff1916827bffffffffffffffffffffffffffffffffffffffffffffffffffffffff191614806104c157507f5b5e139f000000000000000000000000000000000000000000000000000000007bffffffffffffffffffffffffffffffffffffffffffffffffffffffff1916827bffffffffffffffffffffffffffffffffffffffffffffffffffffffff1916145b806104d157506104d0826114ab565b5b9050919050565b6060600080546104e7906138e3565b80601f0160208091040260200160405190810160405280929190818152602001828054610513906138e3565b80156105605780601f1061053557610100808354040283529160200191610560565b820191906000526020600020905b81548152906001019060200180831161054357829003601f168201915b5050505050905090565b600061057582611515565b6105b4576040517f08c379a00000000000000000000000000000000000000000000000000000000081526004016105ab906135a4565b60405180910390fd5b6004600083815260200190815260200160002060009054906101000a900473ffffffffffffffffffffffffffffffffffffffff169050919050565b60006105fa826109c3565b90508073ffffffffffffffffffffffffffffffffffffffff168373ffffffffffffffffffffffffffffffffffffffff16141561066b576040517f08c379a000000000000000000000000000000000000000000000000000000000815260040161066290613604565b60405180910390fd5b8073ffffffffffffffffffffffffffffffffffffffff1661068a611581565b73ffffffffffffffffffffffffffffffffffffffff1614806106b957506106b8816106b3611581565b61137e565b5b6106f8576040517f08c379a00000000000000000000000000000000000000000000000000000000081526004016106ef906134e4565b60405180910390fd5b6107028383611589565b505050565b610718610712611581565b82611642565b610757576040517f08c379a000000000000000000000000000000000000000000000000000000000815260040161074e90613624565b60405180910390fd5b610762838383611720565b505050565b6060600061079b6107778461197c565b60405160200161078791906132b3565b604051602081830303815290604052611b29565b9050600a80549050816107ae919061395e565b9050600a81815481106107ea577f4e487b7100000000000000000000000000000000000000000000000000000000600052603260045260246000fd5b9060005260206000200180546107ff906138e3565b80601f016020809104026020016040519081016040528092919081815260200182805461082b906138e3565b80156108785780601f1061084d57610100808354040283529160200191610878565b820191906000526020600020905b81548152906001019060200180831161085b57829003601f168201915b5050505050915050919050565b6108a083838360405180602001604052806000815250610e6f565b505050565b606060006108d96108b58461197c565b6040516020016108c591906132f7565b604051602081830303815290604052611b29565b9050600d80549050816108ec919061395e565b9050600d8181548110610928577f4e487b7100000000000000000000000000000000000000000000000000000000600052603260045260246000fd5b90600052602060002001805461093d906138e3565b80601f0160208091040260200160405190810160405280929190818152602001828054610969906138e3565b80156109b65780601f1061098b576101008083540402835291602001916109b6565b820191906000526020600020905b81548152906001019060200180831161099957829003601f168201915b5050505050915050919050565b6000806002600084815260200190815260200160002060009054906101000a900473ffffffffffffffffffffffffffffffffffffffff169050600073ffffffffffffffffffffffffffffffffffffffff168173ffffffffffffffffffffffffffffffffffffffff161415610a6c576040517f08c379a0000000000000000000000000000000000000000000000000000000008152600401610a6390613524565b60405180910390fd5b80915050919050565b60008073ffffffffffffffffffffffffffffffffffffffff168273ffffffffffffffffffffffffffffffffffffffff161415610ae6576040517f08c379a0000000000000000000000000000000000000000000000000000000008152600401610add90613504565b60405180910390fd5b600360008373ffffffffffffffffffffffffffffffffffffffff1673ffffffffffffffffffffffffffffffffffffffff168152602001908152602001600020549050919050565b606060018054610b3c906138e3565b80601f0160208091040260200160405190810160405280929190818152602001828054610b68906138e3565b8015610bb55780601f10610b8a57610100808354040283529160200191610bb5565b820191906000526020600020905b815481529060010190602001808311610b9857829003601f168201915b5050505050905090565b610bc7611581565b73ffffffffffffffffffffffffffffffffffffffff168273ffffffffffffffffffffffffffffffffffffffff161415610c35576040517f08c379a0000000000000000000000000000000000000000000000000000000008152600401610c2c906134a4565b60405180910390fd5b8060056000610c42611581565b73ffffffffffffffffffffffffffffffffffffffff1673ffffffffffffffffffffffffffffffffffffffff16815260200190815260200160002060008473ffffffffffffffffffffffffffffffffffffffff1673ffffffffffffffffffffffffffffffffffffffff16815260200190815260200160002060006101000a81548160ff0219169083151502179055508173ffffffffffffffffffffffffffffffffffffffff16610cef611581565b73ffffffffffffffffffffffffffffffffffffffff167f17307eab39ab6107e8899845ad3d59bd9653f200f220920489ca2b5937696c3183604051610d3491906133a9565b60405180910390a35050565b60606000610d74610d508461197c565b604051602001610d60919061324c565b604051602081830303815290604052611b29565b9050600b8054905081610d87919061395e565b9050600b8181548110610dc3577f4e487b7100000000000000000000000000000000000000000000000000000000600052603260045260246000fd5b906000526020600020018054610dd8906138e3565b80601f0160208091040260200160405190810160405280929190818152602001828054610e04906138e3565b8015610e515780601f10610e2657610100808354040283529160200191610e51565b820191906000526020600020905b815481529060010190602001808311610e3457829003601f168201915b5050505050915050919050565b6000610e6a6007611b5c565b905090565b610e80610e7a611581565b83611642565b610ebf576040517f08c379a0000000000000000000000000000000000000000000000000000000008152600401610eb690613624565b60405180910390fd5b610ecb84848484611b6a565b50505050565b60606000610f05610ee18461197c565b604051602001610ef1919061322a565b604051602081830303815290604052611b29565b9050600c8054905081610f18919061395e565b9050600c8181548110610f54577f4e487b7100000000000000000000000000000000000000000000000000000000600052603260045260246000fd5b906000526020600020018054610f69906138e3565b80601f0160208091040260200160405190810160405280929190818152602001828054610f95906138e3565b8015610fe25780601f10610fb757610100808354040283529160200191610fe2565b820191906000526020600020905b815481529060010190602001808311610fc557829003601f168201915b5050505050915050919050565b6060610ffa82611515565b611039576040517f08c379a000000000000000000000000000000000000000000000000000000000815260040161103090613584565b60405180910390fd5b6000600660008481526020019081526020016000208054611059906138e3565b80601f0160208091040260200160405190810160405280929190818152602001828054611085906138e3565b80156110d25780601f106110a7576101008083540402835291602001916110d2565b820191906000526020600020905b8154815290600101906020018083116110b557829003601f168201915b5050505050905060006110e3611bc6565b90506000815114156110f957819250505061113c565b60008251111561112e57808260405160200161111692919061318c565b6040516020818303038152906040529250505061113c565b61113784611bdd565b925050505b919050565b600061114d6007611b5c565b905060338110611192576040517f08c379a000000000000000000000000000000000000000000000000000000000815260040161118990613424565b60405180910390fd5b600061119d82610767565b905060006111aa83610d40565b905060006111b784610ed1565b905060008383836040516020016111d0939291906131b0565b604051602081830303815290604052905060006111ec866108a5565b9050600060088260098560405160200161120994939291906131e1565b6040516020818303038152906040529050600061124e8461122984611c84565b60405160200161123a92919061326e565b604051602081830303815290604052611c84565b905060008160405160200161126391906132d5565b60405160208183030381529060405290506112b26040518060400160405280601581526020017f0a2d2d2d2d2d2d2d2d2d2d2d2d2d2d2d2d2d2d2d2d0000000000000000000000815250611412565b6112bb81611412565b6112f96040518060400160405280601581526020017f2d2d2d2d2d2d2d2d2d2d2d2d2d2d2d2d2d2d2d2d0a0000000000000000000000815250611412565b611303338a611e42565b61130d8982611e60565b6113176007611ed4565b61133a604051806060016040528060258152602001613ab9602591398a33611eea565b7febb98688741ffa4c7589bf325de30cf7becb63de567842e1ccdb6cb949fdc82c338a60405161136b929190613380565b60405180910390a1505050505050505050565b6000600560008473ffffffffffffffffffffffffffffffffffffffff1673ffffffffffffffffffffffffffffffffffffffff16815260200190815260200160002060008373ffffffffffffffffffffffffffffffffffffffff1673ffffffffffffffffffffffffffffffffffffffff16815260200190815260200160002060009054906101000a900460ff16905092915050565b6114a88160405160240161142691906133c4565b6040516020818303038152906040527f41304fac000000000000000000000000000000000000000000000000000000007bffffffffffffffffffffffffffffffffffffffffffffffffffffffff19166020820180517bffffffffffffffffffffffffffffffffffffffffffffffffffffffff8381831617835250505050611f89565b50565b60007f01ffc9a7000000000000000000000000000000000000000000000000000000007bffffffffffffffffffffffffffffffffffffffffffffffffffffffff1916827bffffffffffffffffffffffffffffffffffffffffffffffffffffffff1916149050919050565b60008073ffffffffffffffffffffffffffffffffffffffff166002600084815260200190815260200160002060009054906101000a900473ffffffffffffffffffffffffffffffffffffffff1673ffffffffffffffffffffffffffffffffffffffff1614159050919050565b600033905090565b816004600083815260200190815260200160002060006101000a81548173ffffffffffffffffffffffffffffffffffffffff021916908373ffffffffffffffffffffffffffffffffffffffff160217905550808273ffffffffffffffffffffffffffffffffffffffff166115fc836109c3565b73ffffffffffffffffffffffffffffffffffffffff167f8c5be1e5ebec7d5bd14f71427d1e84f3dd0314c0f7b2291e5b200ac8c7c3b92560405160405180910390a45050565b600061164d82611515565b61168c576040517f08c379a0000000000000000000000000000000000000000000000000000000008152600401611683906134c4565b60405180910390fd5b6000611697836109c3565b90508073ffffffffffffffffffffffffffffffffffffffff168473ffffffffffffffffffffffffffffffffffffffff16148061170657508373ffffffffffffffffffffffffffffffffffffffff166116ee8461056a565b73ffffffffffffffffffffffffffffffffffffffff16145b806117175750611716818561137e565b5b91505092915050565b8273ffffffffffffffffffffffffffffffffffffffff16611740826109c3565b73ffffffffffffffffffffffffffffffffffffffff1614611796576040517f08c379a000000000000000000000000000000000000000000000000000000000815260040161178d906135c4565b60405180910390fd5b600073ffffffffffffffffffffffffffffffffffffffff168273ffffffffffffffffffffffffffffffffffffffff161415611806576040517f08c379a00000000000000000000000000000000000000000000000000000000081526004016117fd90613484565b60405180910390fd5b611811838383611fb2565b61181c600082611589565b6001600360008573ffffffffffffffffffffffffffffffffffffffff1673ffffffffffffffffffffffffffffffffffffffff168152602001908152602001600020600082825461186c91906137f9565b925050819055506001600360008473ffffffffffffffffffffffffffffffffffffffff1673ffffffffffffffffffffffffffffffffffffffff16815260200190815260200160002060008282546118c39190613718565b92505081905550816002600083815260200190815260200160002060006101000a81548173ffffffffffffffffffffffffffffffffffffffff021916908373ffffffffffffffffffffffffffffffffffffffff160217905550808273ffffffffffffffffffffffffffffffffffffffff168473ffffffffffffffffffffffffffffffffffffffff167fddf252ad1be2c89b69c2b068fc378daa952ba7f163c4a11628f55a4df523b3ef60405160405180910390a4505050565b606060008214156119c4576040518060400160405280600181526020017f30000000000000000000000000000000000000000000000000000000000000008152509050611b24565b600082905060005b600082146119f65780806119df90613915565b915050600a826119ef919061376e565b91506119cc565b60008167ffffffffffffffff811115611a38577f4e487b7100000000000000000000000000000000000000000000000000000000600052604160045260246000fd5b6040519080825280601f01601f191660200182016040528015611a6a5781602001600182028036833780820191505090505b5090505b60008514611b1d57600182611a8391906137f9565b9150600a85611a92919061395e565b6030611a9e9190613718565b60f81b818381518110611ada577f4e487b7100000000000000000000000000000000000000000000000000000000600052603260045260246000fd5b60200101907effffffffffffffffffffffffffffffffffffffffffffffffffffffffffffff1916908160001a905350600a85611b16919061376e565b9450611a6e565b8093505050505b919050565b600081604051602001611b3c9190613175565b6040516020818303038152906040528051906020012060001c9050919050565b600081600001549050919050565b611b75848484611720565b611b8184848484611fb7565b611bc0576040517f08c379a0000000000000000000000000000000000000000000000000000000008152600401611bb790613444565b60405180910390fd5b50505050565b606060405180602001604052806000815250905090565b6060611be882611515565b611c27576040517f08c379a0000000000000000000000000000000000000000000000000000000008152600401611c1e906135e4565b60405180910390fd5b6000611c31611bc6565b90506000815111611c515760405180602001604052806000815250611c7c565b80611c5b8461197c565b604051602001611c6c92919061318c565b6040516020818303038152906040525b915050919050565b60606000825190506000811415611cad5760405180602001604052806000815250915050611e3d565b60006003600283611cbe9190613718565b611cc8919061376e565b6004611cd4919061379f565b90506000602082611ce59190613718565b67ffffffffffffffff811115611d24577f4e487b7100000000000000000000000000000000000000000000000000000000600052604160045260246000fd5b6040519080825280601f01601f191660200182016040528015611d565781602001600182028036833780820191505090505b5090506000604051806060016040528060408152602001613ade604091399050600181016020830160005b86811015611dfa5760038101905062ffffff818a015116603f8160121c168401518060081b905060ff603f83600c1c1686015116810190508060081b905060ff603f8360061c1686015116810190508060081b905060ff603f831686015116810190508060e01b90508084526004840193505050611d81565b506003860660018114611e145760028114611e2457611e2f565b613d3d60f01b6002830352611e2f565b603d60f81b60018303525b508484525050819450505050505b919050565b611e5c82826040518060200160405280600081525061214e565b5050565b611e6982611515565b611ea8576040517f08c379a0000000000000000000000000000000000000000000000000000000008152600401611e9f90613544565b60405180910390fd5b80600660008481526020019081526020016000209080519060200190611ecf92919061238a565b505050565b6001816000016000828254019250508190555050565b611f84838383604051602401611f02939291906133e6565b6040516020818303038152906040527fe3849f79000000000000000000000000000000000000000000000000000000007bffffffffffffffffffffffffffffffffffffffffffffffffffffffff19166020820180517bffffffffffffffffffffffffffffffffffffffffffffffffffffffff8381831617835250505050611f89565b505050565b60008151905060006a636f6e736f6c652e6c6f679050602083016000808483855afa5050505050565b505050565b6000611fd88473ffffffffffffffffffffffffffffffffffffffff166121a9565b15612141578373ffffffffffffffffffffffffffffffffffffffff1663150b7a02612001611581565b8786866040518563ffffffff1660e01b81526004016120239493929190613334565b602060405180830381600087803b15801561203d57600080fd5b505af192505050801561206e57506040513d601f19601f8201168201806040525081019061206b91906126ce565b60015b6120f1573d806000811461209e576040519150601f19603f3d011682016040523d82523d6000602084013e6120a3565b606091505b506000815114156120e9576040517f08c379a00000000000000000000000000000000000000000000000000000000081526004016120e090613444565b60405180910390fd5b805181602001fd5b63150b7a0260e01b7bffffffffffffffffffffffffffffffffffffffffffffffffffffffff1916817bffffffffffffffffffffffffffffffffffffffffffffffffffffffff191614915050612146565b600190505b949350505050565b61215883836121bc565b6121656000848484611fb7565b6121a4576040517f08c379a000000000000000000000000000000000000000000000000000000000815260040161219b90613444565b60405180910390fd5b505050565b600080823b905060008111915050919050565b600073ffffffffffffffffffffffffffffffffffffffff168273ffffffffffffffffffffffffffffffffffffffff16141561222c576040517f08c379a000000000000000000000000000000000000000000000000000000000815260040161222390613564565b60405180910390fd5b61223581611515565b15612275576040517f08c379a000000000000000000000000000000000000000000000000000000000815260040161226c90613464565b60405180910390fd5b61228160008383611fb2565b6001600360008473ffffffffffffffffffffffffffffffffffffffff1673ffffffffffffffffffffffffffffffffffffffff16815260200190815260200160002060008282546122d19190613718565b92505081905550816002600083815260200190815260200160002060006101000a81548173ffffffffffffffffffffffffffffffffffffffff021916908373ffffffffffffffffffffffffffffffffffffffff160217905550808273ffffffffffffffffffffffffffffffffffffffff16600073ffffffffffffffffffffffffffffffffffffffff167fddf252ad1be2c89b69c2b068fc378daa952ba7f163c4a11628f55a4df523b3ef60405160405180910390a45050565b828054612396906138e3565b90600052602060002090601f0160209004810192826123b857600085556123ff565b82601f106123d157805160ff19168380011785556123ff565b828001600101855582156123ff579182015b828111156123fe5782518255916020019190600101906123e3565b5b50905061240c9190612410565b5090565b5b80821115612429576000816000905550600101612411565b5090565b600061244061243b84613690565b61365f565b90508281526020810184848401111561245857600080fd5b6124638482856138a1565b509392505050565b60008135905061247a81613a5c565b92915050565b60008135905061248f81613a73565b92915050565b6000813590506124a481613a8a565b92915050565b6000815190506124b981613a8a565b92915050565b600082601f8301126124d057600080fd5b81356124e084826020860161242d565b91505092915050565b6000813590506124f881613aa1565b92915050565b60006020828403121561251057600080fd5b600061251e8482850161246b565b91505092915050565b6000806040838503121561253a57600080fd5b60006125488582860161246b565b92505060206125598582860161246b565b9150509250929050565b60008060006060848603121561257857600080fd5b60006125868682870161246b565b93505060206125978682870161246b565b92505060406125a8868287016124e9565b9150509250925092565b600080600080608085870312156125c857600080fd5b60006125d68782880161246b565b94505060206125e78782880161246b565b93505060406125f8878288016124e9565b925050606085013567ffffffffffffffff81111561261557600080fd5b612621878288016124bf565b91505092959194509250565b6000806040838503121561264057600080fd5b600061264e8582860161246b565b925050602061265f85828601612480565b9150509250929050565b6000806040838503121561267c57600080fd5b600061268a8582860161246b565b925050602061269b858286016124e9565b9150509250929050565b6000602082840312156126b757600080fd5b60006126c584828501612495565b91505092915050565b6000602082840312156126e057600080fd5b60006126ee848285016124aa565b91505092915050565b60006020828403121561270957600080fd5b6000612717848285016124e9565b91505092915050565b6127298161382d565b82525050565b6127388161383f565b82525050565b6000612749826136d5565b61275381856136eb565b93506127638185602086016138b0565b61276c81613a4b565b840191505092915050565b6000612782826136e0565b61278c81856136fc565b935061279c8185602086016138b0565b6127a581613a4b565b840191505092915050565b60006127bb826136e0565b6127c5818561370d565b93506127d58185602086016138b0565b80840191505092915050565b600081546127ee816138e3565b6127f8818661370d565b94506001821660008114612813576001811461282457612857565b60ff19831686528186019350612857565b61282d856136c0565b60005b8381101561284f57815481890152600182019150602081019050612830565b838801955050505b50505092915050565b600061286d6034836136fc565b91507f416c6c203530204e4654732068617665206265656e206d696e7465642e204e6f60008301527f206d6f72652061726520617661696c61626c652e0000000000000000000000006020830152604082019050919050565b60006128d36032836136fc565b91507f4552433732313a207472616e7366657220746f206e6f6e20455243373231526560008301527f63656976657220696d706c656d656e74657200000000000000000000000000006020830152604082019050919050565b6000612939601c836136fc565b91507f4552433732313a20746f6b656e20616c7265616479206d696e746564000000006000830152602082019050919050565b6000612979600a8361370d565b91507f54484952445f574f5244000000000000000000000000000000000000000000006000830152600a82019050919050565b60006129b96024836136fc565b91507f4552433732313a207472616e7366657220746f20746865207a65726f2061646460008301527f72657373000000000000000000000000000000000000000000000000000000006020830152604082019050919050565b6000612a1f6019836136fc565b91507f4552433732313a20617070726f766520746f2063616c6c6572000000000000006000830152602082019050919050565b6000612a5f60638361370d565b91507f222c20226465736372697074696f6e223a20224120686967686c79206163636c60008301527f61696d656420636f6c6c656374696f6e206f6620737175617265732e222c202260208301527f696d616765223a2022646174613a696d6167652f7376672b786d6c3b6261736560408301527f36342c00000000000000000000000000000000000000000000000000000000006060830152606382019050919050565b6000612b11600b8361370d565b91507f5345434f4e445f574f52440000000000000000000000000000000000000000006000830152600b82019050919050565b6000612b51602c836136fc565b91507f4552433732313a206f70657261746f7220717565727920666f72206e6f6e657860008301527f697374656e7420746f6b656e00000000000000000000000000000000000000006020830152604082019050919050565b6000612bb7600d8361370d565b91507f3c2f746578743e3c2f7376673e000000000000000000000000000000000000006000830152600d82019050919050565b6000612bf76038836136fc565b91507f4552433732313a20617070726f76652063616c6c6572206973206e6f74206f7760008301527f6e6572206e6f7220617070726f76656420666f7220616c6c00000000000000006020830152604082019050919050565b6000612c5d602a836136fc565b91507f4552433732313a2062616c616e636520717565727920666f7220746865207a6560008301527f726f2061646472657373000000000000000000000000000000000000000000006020830152604082019050919050565b6000612cc36029836136fc565b91507f4552433732313a206f776e657220717565727920666f72206e6f6e657869737460008301527f656e7420746f6b656e00000000000000000000000000000000000000000000006020830152604082019050919050565b6000612d29602e836136fc565b91507f45524337323155524953746f726167653a2055524920736574206f66206e6f6e60008301527f6578697374656e7420746f6b656e0000000000000000000000000000000000006020830152604082019050919050565b6000612d8f60028361370d565b91507f227d0000000000000000000000000000000000000000000000000000000000006000830152600282019050919050565b6000612dcf6020836136fc565b91507f4552433732313a206d696e7420746f20746865207a65726f20616464726573736000830152602082019050919050565b6000612e0f6031836136fc565b91507f45524337323155524953746f726167653a2055524920717565727920666f722060008301527f6e6f6e6578697374656e7420746f6b656e0000000000000000000000000000006020830152604082019050919050565b6000612e75602c836136fc565b91507f4552433732313a20617070726f76656420717565727920666f72206e6f6e657860008301527f697374656e7420746f6b656e00000000000000000000000000000000000000006020830152604082019050919050565b6000612edb6029836136fc565b91507f4552433732313a207472616e73666572206f6620746f6b656e2074686174206960008301527f73206e6f74206f776e00000000000000000000000000000000000000000000006020830152604082019050919050565b6000612f41602f836136fc565b91507f4552433732314d657461646174613a2055524920717565727920666f72206e6f60008301527f6e6578697374656e7420746f6b656e00000000000000000000000000000000006020830152604082019050919050565b6000612fa7600a8361370d565b91507f7b226e616d65223a2022000000000000000000000000000000000000000000006000830152600a82019050919050565b6000612fe76021836136fc565b91507f4552433732313a20617070726f76616c20746f2063757272656e74206f776e6560008301527f72000000000000000000000000000000000000000000000000000000000000006020830152604082019050919050565b600061304d600a8361370d565b91507f46495253545f574f5244000000000000000000000000000000000000000000006000830152600a82019050919050565b600061308d601d8361370d565b91507f646174613a6170706c69636174696f6e2f6a736f6e3b6261736536342c0000006000830152601d82019050919050565b60006130cd6031836136fc565b91507f4552433732313a207472616e736665722063616c6c6572206973206e6f74206f60008301527f776e6572206e6f7220617070726f7665640000000000000000000000000000006020830152604082019050919050565b600061313360058361370d565b91507f434f4c4f520000000000000000000000000000000000000000000000000000006000830152600582019050919050565b61316f81613897565b82525050565b600061318182846127b0565b915081905092915050565b600061319882856127b0565b91506131a482846127b0565b91508190509392505050565b60006131bc82866127b0565b91506131c882856127b0565b91506131d482846127b0565b9150819050949350505050565b60006131ed82876127e1565b91506131f982866127b0565b915061320582856127e1565b915061321182846127b0565b915061321c82612baa565b915081905095945050505050565b60006132358261296c565b915061324182846127b0565b915081905092915050565b600061325782612b04565b915061326382846127b0565b915081905092915050565b600061327982612f9a565b915061328582856127b0565b915061329082612a52565b915061329c82846127b0565b91506132a782612d82565b91508190509392505050565b60006132be82613040565b91506132ca82846127b0565b915081905092915050565b60006132e082613080565b91506132ec82846127b0565b915081905092915050565b600061330282613126565b915061330e82846127b0565b915081905092915050565b600060208201905061332e6000830184612720565b92915050565b60006080820190506133496000830187612720565b6133566020830186612720565b6133636040830185613166565b8181036060830152613375818461273e565b905095945050505050565b60006040820190506133956000830185612720565b6133a26020830184613166565b9392505050565b60006020820190506133be600083018461272f565b92915050565b600060208201905081810360008301526133de8184612777565b905092915050565b600060608201905081810360008301526134008186612777565b905061340f6020830185613166565b61341c6040830184612720565b949350505050565b6000602082019050818103600083015261343d81612860565b9050919050565b6000602082019050818103600083015261345d816128c6565b9050919050565b6000602082019050818103600083015261347d8161292c565b9050919050565b6000602082019050818103600083015261349d816129ac565b9050919050565b600060208201905081810360008301526134bd81612a12565b9050919050565b600060208201905081810360008301526134dd81612b44565b9050919050565b600060208201905081810360008301526134fd81612bea565b9050919050565b6000602082019050818103600083015261351d81612c50565b9050919050565b6000602082019050818103600083015261353d81612cb6565b9050919050565b6000602082019050818103600083015261355d81612d1c565b9050919050565b6000602082019050818103600083015261357d81612dc2565b9050919050565b6000602082019050818103600083015261359d81612e02565b9050919050565b600060208201905081810360008301526135bd81612e68565b9050919050565b600060208201905081810360008301526135dd81612ece565b9050919050565b600060208201905081810360008301526135fd81612f34565b9050919050565b6000602082019050818103600083015261361d81612fda565b9050919050565b6000602082019050818103600083015261363d816130c0565b9050919050565b60006020820190506136596000830184613166565b92915050565b6000604051905081810181811067ffffffffffffffff8211171561368657613685613a1c565b5b8060405250919050565b600067ffffffffffffffff8211156136ab576136aa613a1c565b5b601f19601f8301169050602081019050919050565b60008190508160005260206000209050919050565b600081519050919050565b600081519050919050565b600082825260208201905092915050565b600082825260208201905092915050565b600081905092915050565b600061372382613897565b915061372e83613897565b9250827fffffffffffffffffffffffffffffffffffffffffffffffffffffffffffffffff038211156137635761376261398f565b5b828201905092915050565b600061377982613897565b915061378483613897565b925082613794576137936139be565b5b828204905092915050565b60006137aa82613897565b91506137b583613897565b9250817fffffffffffffffffffffffffffffffffffffffffffffffffffffffffffffffff04831182151516156137ee576137ed61398f565b5b828202905092915050565b600061380482613897565b915061380f83613897565b9250828210156138225761382161398f565b5b828203905092915050565b600061383882613877565b9050919050565b60008115159050919050565b60007fffffffff0000000000000000000000000000000000000000000000000000000082169050919050565b600073ffffffffffffffffffffffffffffffffffffffff82169050919050565b6000819050919050565b82818337600083830152505050565b60005b838110156138ce5780820151818401526020810190506138b3565b838111156138dd576000848401525b50505050565b600060028204905060018216806138fb57607f821691505b6020821081141561390f5761390e6139ed565b5b50919050565b600061392082613897565b91507fffffffffffffffffffffffffffffffffffffffffffffffffffffffffffffffff8214156139535761395261398f565b5b600182019050919050565b600061396982613897565b915061397483613897565b925082613984576139836139be565b5b828206905092915050565b7f4e487b7100000000000000000000000000000000000000000000000000000000600052601160045260246000fd5b7f4e487b7100000000000000000000000000000000000000000000000000000000600052601260045260246000fd5b7f4e487b7100000000000000000000000000000000000000000000000000000000600052602260045260246000fd5b7f4e487b7100000000000000000000000000000000000000000000000000000000600052604160045260246000fd5b6000601f19601f8301169050919050565b613a658161382d565b8114613a7057600080fd5b50565b613a7c8161383f565b8114613a8757600080fd5b50565b613a938161384b565b8114613a9e57600080fd5b50565b613aaa81613897565b8114613ab557600080fd5b5056fe416e204e465420772f20494420257320686173206265656e206d696e74656420746f2025734142434445464748494a4b4c4d4e4f505152535455565758595a6162636465666768696a6b6c6d6e6f707172737475767778797a303132333435363738392b2fa264697066735822122043d09e9eca12497445d2b0c199a56ab1a2aee6890b9894b5ff1ef34189c51ef364736f6c634300080000333c73766720786d6c6e733d27687474703a2f2f7777772e77332e6f72672f323030302f73766727207072657365727665417370656374526174696f3d27784d696e594d696e206d656574272076696577426f783d273020302033353020333530273e3c7374796c653e2e62617365207b2066696c6c3a2077686974653b20666f6e742d66616d696c793a2073657269663b20666f6e742d73697a653a20323470783b207d3c2f7374796c653e3c726563742077696474683d273130302527206865696768743d2731303025272066696c6c3d27272f3e3c7465787420783d273530252720793d273530252720636c6173733d27626173652720646f6d696e616e742d626173656c696e653d276d6964646c652720746578742d616e63686f723d276d6964646c65273e",
  "linkReferences": {},
  "deployedLinkReferences": {}
}